:020000040800F2
:1000000010050020450100082D0300080503000825
:10001000290300088D010008390B000800000000CA
:10002000000000000000000000000000CB060008F7
:100030009101000800000000B5030008B5070008A2
:100040005F0100085F0100085F0100085F01000810
:100050005F0100085F0100085F0100085F01000800
:100060005F0100085F0100085F0100085F010008F0
:100070005F0100085F0100085F0100085F010008E0
:100080005F0100085F0100085F0100085F010008D0
:100090005F0100085F0100085F0100085F010008C0
:1000A0005F0100085F0100085F0100085F010008B0
:1000B0005F0100085F0100085F0100085F010008A0
:1000C0005F0100085F0100085F0100085F01000890
:1000D0005F010008250800084D0800085F010008BE
:1000E0005F0100085F0100085F0100085F01000870
:1000F0005F0100085F0100085F0100085F01000860
:100100005F0100085F0100085F0100085F0100084F
:100110005F0100085F0100085F0100085F0100083F
:100120005F0100085F0100085F0100085F0100082F
:10013000DFF80CD000F018F800480047C50B0008A5
:10014000100500200648804706480047FEE7FEE706
:10015000FEE7FEE7FEE7FEE7FEE7FEE7FEE7FEE777
:10016000C507000831010008064C074D06E0E068AD
:1001700040F0010394E8070098471034AC42F6D3EE
:10018000FFF7DAFF2C0C00084C0C000800BFFEE75C
:1001900070472DE9F041024600250026002000238B
:1001A0000024002791F803C00CF00F0591F803C05C
:1001B0000CF0100CBCF1000F03D091F802C04CEA17
:1001C000050591F800C0BCF1000F31D01468002083
:1001D0002BE04FF0010C0CFA00F3B1F800C00CEA70
:1001E00003069E4220D183004FF00F0C0CFA03F758
:1001F000BC4305FA03FC4CEA040491F803C0BCF1CB
:10020000280F06D14FF0010C0CFA00FCC2F814C004
:100210000AE091F803C0BCF1480F05D14FF0010C82
:100220000CFA00FCC2F810C0401C0828D1D314609E
:10023000B1F800C0BCF1FF0F34DD546800202EE09F
:1002400000F1080C4FF0010808FA0CF3B1F800C0F7
:100250000CEA03069E4221D183004FF00F0C0CFAEA
:1002600003F7BC4305FA03FC4CEA040491F803C00D
:10027000BCF1280F05D100F1080C08FA0CF8C2F8FF
:10028000148091F803C0BCF1480F07D100F1080CAD
:100290004FF0010808FA0CF8C2F81080401C08283A
:1002A000CED35460BDE8F081F8B504460D4616463D
:1002B0001F461148844204D10121042000F08CF82B
:1002C0000EE00E48844204D10121082000F084F899
:1002D00006E00B48844203D10121102000F07CF895
:1002E000ADF800508DF803608DF802706946204625
:1002F000FFF74FFFF8BD000000080140000C01406F
:100300000010014000BFFEE710B503231022510288
:100310000348FFF7C9FF01200249086010BD000033
:1003200000100140B401224200BFFEE77047000008
:1003300070B5002100230F22C47804B3154C246843
:1003400004F4E064C4F5E064210AC1F10403CA4086
:10035000447804FA03F184781440214309010E4CD7
:100360000678A155047804F01F050124AC400578F7
:100370006D11AD0005F1E025C5F8004109E00478F4
:1003800004F01F050124AC40044D0678761145F8B1
:10039000264070BD0CED00E000E400E080E100E0EC
:1003A00002490143024A1160704700000000FA054B
:1003B0000CED00E07047000029B1064AD269024303
:1003C000044BDA6104E0034AD2698243014BDA61EB
:1003D000704700000010024029B1064A92690243AA
:1003E000044B9A6104E0034A92698243014B9A618B
:1003F000704700000010024030B5002100220024A8
:1004000000232D4D6D6805F00C0121B1042905D0A4
:10041000082923D105E0294D056022E0274D05601C
:100420001FE0254D6D6805F47012234D6D6805F4CD
:100430008034022505EB92421CB9214D55430560DD
:100440000BE01D4D6D6805F400351DB11C4D554385
:10045000056002E0194D5543056002E0174D056047
:1004600000BF00BF144D6D6805F0F0010909154D7E
:100470006B5C0568DD4045600F4D6D6805F4E0611B
:10048000090A104D6B5C4568DD4085600A4D6D685A
:1004900005F46051C90A0B4D6B5C4568DD40C560D1
:1004A000054D6D6805F44041890B074D6B5CC568CF
:1004B000B5FBF3F5056130BD0010024000127A0073
:1004C00000093D001C0000202C00002021B1028802
:1004D00042F40052028004E002884DF6FF731A4095
:1004E0000280704721B1028842F04002028004E09D
:1004F00002884FF6BF731A40028070470246002000
:1005000013890B400BB1012000E000207047014629
:10051000888970478181704710B50022028802F4F3
:1005200041520B884C8823438C882343CC88234337
:100530000C8923434C8923438C892343CC8923434F
:100540001A430280838B4FF2FF74234083830B8A0C
:10055000038210BD70B586B005460C461646484865
:10056000854232D101218014FFF736FF012104209A
:10057000FFF732FFB4F5827F12D103231822202126
:100580004048FFF791FE0323042240213D48FFF736
:100590008BFE0323182280213A48FFF785FE49E0AD
:1005A000002C47D10323042220213648FFF77CFE8C
:1005B0000323182240213348FFF776FE0323042249
:1005C00080213048FFF770FE34E02F48854231D15A
:1005D00001210014FFF7F0FE01210820FFF7FCFEC7
:1005E000B4F5827F12D10323182269142748FFF73C
:1005F0005BFE0323042211032448FFF755FE032367
:100600001822E9132148FFF74FFE13E094B90323A2
:100610000422D1021D48FFF747FE032318224FF49E
:1006200080411A48FFF740FE032304225103174874
:10063000FFF73AFE0020ADF80400ADF80640ADF833
:100640000800ADF80A000120ADF80C004002ADF83A
:100650000E00ADF810600020ADF812000720ADF8D4
:10066000140001A92846FFF757FF01212846FFF78C
:100670002DFF01212846FFF735FF06B070BD0000B1
:10068000003001400008014000380040000C0140EB
:1006900010B5044600BF01212046FFF72FFF0028B8
:1006A000F9D02046FFF733FFC0B210BD70B5044645
:1006B0000D4600BF02212046FFF720FF0028F9D099
:1006C00029462046FFF726FF70BD704710B500F0A1
:1006D00001F810BD0CB5002001900090334800686F
:1006E00040F480303149086000BF3048006800F4B1
:1006F000003000900198401C0190009818B90198B2
:10070000B0F5A06FF1D12948006800F4003010B1B5
:100710000120009001E0002000900098012843D1C2
:100720002348006840F0100021490860084600682E
:1007300020F0030008600846006840F002000860EE
:100740001A484068194948600846406848600846A9
:10075000406840F4806048600846406820F47C109F
:1007600048600846406840F4E81048600846006861
:1007700040F08070086000BF0C48006800F0007016
:100780000028F9D00948406820F003000749486074
:100790000846406840F00200486000BF03484068D7
:1007A00000F00C000828F9D10CBD00000010024038
:1007B0000020024002480068401C01490860704760
:1007C0001800002010B51348006840F001001149DE
:1007D000086008464068104908400E4948600846CD
:1007E00000680E4908400B4908600846006820F47C
:1007F000802008600846406820F4FE0048604FF4FE
:100800001F008860FFF762FF4FF000600449086036
:1008100010BD0000001002400000FFF8FFFFF6FED0
:1008200008ED00E010B540F22551064800F02EF822
:1008300030B10448001D0088C1B2034800F0E2F85E
:1008400010BD0000003801400000002010B540F24B
:100850002551064800F01AF830B10448001D008800
:10086000C1B2034800F0CEF810BD000000440040C3
:100870000C00002021B1828942F40052828104E000
:1008800082894DF6FF731A408281704770B5024627
:10089000002400230025002040F66A16B14200D152
:1008A00000BFC1F3421501F01F03012606FA03F34E
:1008B000012D02D19689334006E0022D02D1168A1D
:1008C000334001E0968A33400C12012606FA04F404
:1008D0001688344013B10CB1012000E0002070BD37
:1008E000F0B50346002400260025002040F66A17D4
:1008F000B94200D100BF1846C1F3421401F01F06EF
:10090000012707FA06F5012C01D10C3004E0022C76
:1009100001D1103000E014301AB107682F4307608E
:1009200002E00768AF430760F0BD00002DE9F04723
:1009300086B005460E460024A24600BFA146002709
:10094000B08900B100BF2F462C8A4CF6FF700440DE
:10095000F08804432C82AC894EF6F3100440B08832
:1009600031890843718908430443AC81AC8A4FF64E
:10097000FF400440B0890443AC8201A8FFF73CFD6E
:100980001F48874202D1DDF810A001E0DDF80CA07D
:10099000A88900F4004040B10AEBCA0000EB0A103D
:1009A00031684900B0FBF1F807E00AEBCA0000EB40
:1009B0000A1031688900B0FBF1F86420B8FBF0F050
:1009C00004012009642101FB1089A88900F400407A
:1009D00040B1322000EBC900B0FBF1F000F007009D
:1009E000044308E0322000EB09106421B0FBF1F071
:1009F00000F00F0004432C8106B0BDE8F087000032
:100A000000380140C28883889A4201D10022C28006
:100A1000C3880268D154C288521CC2804289521CC9
:100A200042817047F0B585B005460C461746012156
:100A30000846FFF7D1FC3B48854205D12526012118
:100A40008803FFF7C9FC07E03748854204D1262612
:100A500001214804FFF7C0FC6CB9032318224FF4AE
:100A600000713248FFF720FC0323042211022F48B3
:100A7000FFF71AFC2BE0012C0CD103231822402194
:100A80002B48FFF711FC0323042280212848FFF79D
:100A90000BFC1CE0022C0CD1032318220421234858
:100AA000FFF702FC0323042208212048FFF7FCFB88
:100AB0000DE0032C0BD10323182220211D48FFF742
:100AC000F3FB0323042240211A48FFF7EDFB0197B3
:100AD0000020ADF80800ADF80A00ADF80C00ADF844
:100AE00010000C20ADF80E0001A92846FFF71EFFEC
:100AF0008DF8006000208DF801008DF802000120C3
:100B00008DF803006846FFF713FC012240F22551DF
:100B10002846FFF7E5FE01212846FFF7ABFE05B0AA
:100B2000F0BD0000003801400044004000080140D2
:100B3000000C01400014014000BFFEE702E008C8BD
:100B4000121F08C1002AFAD170477047002001E047
:100B500001C1121F002AFBD17047000070B54FF48D
:100B60004070FFF71DFC144800684FF47A72B0FB28
:100B7000F2F1B1F1807F00D31DE021F07F40401EF3
:100B80004FF0E022506150170F22002807DA1307B8
:100B90001D0E0A4B00F00F04241F1D5503E0130720
:100BA0001C0E074B1C5400BF00204FF0E022906148
:100BB0000720106100BF70BD3400002018ED00E078
:100BC00000E400E0FFF7A0FBFFF7C8FF18224FF496
:100BD00082711148FFF7BEFC182200210F48FFF771
:100BE000B9FC4FF4165200210D48FFF71BFF11E02E
:100BF0000F210948FFF75AFD0848FFF749FD094949
:100C0000087008210548FFF751FD0348FFF740FD34
:100C100005490870ECE70000003001400038004052
:100C20000038014030000020310000204C0C00084A
:100C300000000020480000003C0B0008940C000855
:100C400048000020C80400004C0B000848000020A9
:100C50006400000000000000AC0000206400000000
:100C6000000000000000000000000000010203047A
:100C70000102030406070809020406080000000038
:100C800000A24A040000000000000000010203046A
:040C90000607080942
:0400000508000131BD
:00000001FF
