:020000040800F2
:10000000A005002045010008830F00087B0F0008B1
:100010007F0F0008710D0008911500080000000016
:10002000000000000000000000000000ED100008CB
:10003000750D000800000000F50F0008011200080F
:100040005F0100085F0100085F0100085F01000810
:100050005F0100085F0100085F0100085F01000800
:100060005F0100085F0100085F0100085F010008F0
:100070005F0100085F0100085F0100085F010008E0
:100080005F0100085F0100085F0100085F010008D0
:100090005F0100085F0100085F0100085F010008C0
:1000A0005F0100085F0100085F0100085F010008B0
:1000B0005F0100085F0100085F0100085F010008A0
:1000C0005F0100085F0100085F0100085F01000890
:1000D0005F010008651200088D1200085F0100082A
:1000E0005F0100085F0100085F0100085F01000870
:1000F0005F0100085F0100085F0100085F01000860
:100100005F0100085F0100085F0100085F0100084F
:100110005F0100085F0100085F0100085F0100083F
:100120005F0100085F0100085F0100085F0100082F
:10013000DFF80CD000F034FB004800473D1F0008FA
:10014000A00500200648804706480047FEE7FEE776
:10015000FEE7FEE7FEE7FEE7FEE7FEE7FEE7FEE777
:10016000051200083101000870B50F4D00B928686C
:10017000002412E00A4602E09E4203D0521C13788B
:10018000002BF9D1DAB2224305D02BB124B10021E2
:1001900000F8011B04E00446401C0678002EE9D15B
:1001A0002860204670BD00006800002070B506463B
:1001B00001F000FA046805460A220021304600F0EA
:1001C000C7F82C6070BD00F0004230F000400AD04B
:1001D000C10D01F56071C0F3160042EA0151C20879
:1001E00040071143704700200146704701F000436B
:1001F00030B421F0004150EA010206D00A0DA2F508
:100200006072C1F31301002A02DC30BC0020704789
:10021000440F44EAC104C100E01830BC00EBC250F6
:1002200000F0CEB830B50B46014600202022012454
:1002300009E021FA02F59D4205D303FA02F5491BB4
:1002400004FA02F52844151EA2F10102F1DC30BDCA
:100250002DE9F05F0546002092469B4688460646FB
:10026000814640241BE0284641464746224600F08E
:10027000B8FA53465A46C01A914110D3114618464F
:10028000224600F09FFA2D1A67EB01084F462246DE
:100290000120002100F096FA17EB00094E41201EC4
:1002A000A4F10104DFDC484631462A464346BDE856
:1002B000F09F00000FB4002300B589B00CA9009195
:1002C0000B996FF00042CB601E4B06931E4B0793B9
:1002D0000423CDE901321D4A089202466B460020F4
:1002E00000F044FB09B05DF814FB70B586B006461B
:1002F0004FF0FF300091CDE90101002015460C467A
:1003000004903246694604A8FFF7D4FF02460498D9
:10031000211825B108B1084600E02046286004985D
:1003200000280DD0002A02DD0098884208D0081B62
:100330000094CDE901043246694604A8FFF7BAFFEC
:1003400006B070BDA50B0008C30B000831080008FB
:100350002DE9F04791460F4680460446002614F8E2
:10036000015B2DB100F060FA0068405DC007F6D176
:100370002B2D02D02D2D18D0641E4A46394620461A
:1003800000F030FC27B13968A14201D1C7F80080E4
:1003900071054FF002040BD54042002803DD01F047
:1003A00009F90460A007BDE8F08746F48066E4E739
:1003B0000028F8DA01F0FEF804606FF00040F2E780
:1003C0000029A8BF7047401C490008BF20F0010069
:1003D000704710B4B0FA80FC00FA0CF050EA010447
:1003E00004BF10BC704749B1CCF1200421FA04F4D9
:1003F00011FA0CF118BF012121430843A3EB0C01B2
:10040000CB1D4FEA00614FEA102042BF002010BC14
:10041000704700EBC35010440029A4BF10BC7047C4
:10042000401C490008BF20F0010010BC70472DE9B6
:10043000FE4F804681EA0300C00F0C46009021F079
:10044000004123F00045B8EB0200A94105D2404627
:10045000214690461C460B46024623F000401043BE
:1004600047D0270DC7F30A00C3F30A510290401A80
:10047000019040286BDAC3F3130040F4801B00980E
:10048000924620B10023D2EB030A63EB0B0B0198D9
:100490005946C0F14002504600F094F906460D4618
:1004A00050465946019A00F0ACF910EB0800614142
:1004B000002487EA115284EAE7731A4340D0009A75
:1004C00062B3019A012A4FEA075215DC001B61EB67
:1004D00002014FF0004202EA0752CDE90042001C3F
:1004E00041F5801132462B4600F0DAFB03B0BDE83F
:1004F000F08F40462146F9E7001B61EB0201001C2A
:1005000041F5801300185B412018A2F5001747EB56
:10051000030140EAD570B6196D4111E06D084FEA4C
:10052000360645EAC0754FEA0752001B61EB02012F
:10053000001C41F5801149084FEA30000019514173
:1005400032462B4603B0BDE8F04F00F09ABB00984E
:10055000012240000023D0EB020263EBE07300981D
:1005600021464FEAE074B8EB000061EB0401E9E7D3
:1005700083F000435BE781F0004158E72DE9FE4F2F
:1005800081EA030404F0004421F0004100944FF09C
:10059000000B23F0004350EA01045ED052EA03044A
:1005A0005BD0C3F30A54C1F30A552C44A4F2F334CC
:1005B0000194A0FB0254C1F3130141F48011C3F371
:1005C000130343F4801301FB024400FB034E840A2F
:1005D000970A44EA815447EA8357A4FB07680295C7
:1005E0008D0A05FB07854FEA932C04FB0C54270565
:1005F000029D4FEA065847EA1637B5EB08056EEB41
:10060000070C870E920E47EA811742EA8312A7FB76
:100610000201B6EB0B0164EB00042B0D43EA0C3333
:100620005E1844EB1C50DA465146E7FB0201C5F365
:1006300013044FEA0B3343EA14534FEA0432019C8C
:1006400043EA0603A4F10C040294009CCDE900B433
:1006500000F026FB03B0BDE8F08F00200146F9E76B
:100660002DE9F04D81EA030404F0004B21F0004530
:1006700014464FF0000A23F0004150EA050220D052
:1006800054EA01021DD0C5F30A570246C5F313030D
:10069000C1F31300C1F30A5640F4801543F48013EC
:1006A000A7EB0608101BD64608F2FD3873EB0500D1
:1006B00002D308F1010801E092185B41B8F1000F84
:1006C00003DA00200146BDE8F08D00204FF48011D0
:1006D000064684460EE0171B73EB050705D3121B75
:1006E00063EB050306434CEA010C49084FEA30006E
:1006F00092185B4150EA0107EDD152EA030012D093
:1007000082EA040083EA0501084305D0101BAB41CF
:1007100006D20122002306E000224FF0004302E04F
:100720006FF0010253101AEB06004CEB085110EB6E
:100730000A0041EB0B01BDE8F04D00F0A2BAC1F395
:100740000A52C1F3130140F2FF3341F480119A427F
:1007500002DA00200146704740F233439A42A2F287
:10076000334202DC524200F03CB800F02BB80000EB
:1007700030B5041E71F1000404DB4FF00044404228
:1007800064EB0101141E73F1000405DB1C464FF0FD
:100790000043524263EB0403994208BF904230BDCC
:1007A000064C074D06E0E06840F0010394E80700BE
:1007B00098471034AC42F6D3FFF7BEFCBC200008CB
:1007C000DC200008202A04DB203A00FA02F1002095
:1007D00070479140C2F1200320FA03F3194390407F
:1007E0007047202A04DB203A21FA02F000217047EA
:1007F00021FA02F3D040C2F1200291400843194689
:100800007047202A06DBCB17203A41FA02F043EA70
:10081000E07306E041FA02F3D040C2F120029140B9
:10082000084319467047000000487047B820000888
:1008300010B50446FFF7F8FF0068005D00F0010006
:1008400010BD00002DE9FF4F087883B09946FF28BE
:1008500005D0491C2D2804D00024002008E00020E9
:100860000BE00124F9E700EB800003EB4000491C9A
:100870000B78FF2BF7D104B1404200230293147888
:1008800019461D462D2C01D02B2C04D1521C2D2C89
:1008900013D000240294AA461478FF2C0FD00A2506
:1008A000A3FB057801FB05814FF0000C03FB0C1145
:1008B000521CE3194AEB0101EEE70124EAE7814407
:1008C00053EA010002D019F5C87F06DA0398002127
:1008D000C0E9001107B0BDE8F08F0025AE4E2F46ED
:1008E000DFF8B882184600F037FACDE90001B9F117
:1008F000000002DAC9F1000400E004460023A74A20
:100900001AEB030B42EB045A12E0E00707D02A4629
:10091000334638464146FFF731FE074688462A46A9
:10092000334610461946FFF729FE05460E46641069
:10093000002CEAD1DDE90001B9F1000F5A46534617
:1009400006DAFFF78DFE3A464346FFF789FE05E0DB
:10095000FFF714FE3A464346FFF710FE029A0AB12B
:1009600081F00041039AC2E90001B3E72DE9FF4F8E
:100970001F468DB0D7E901464FF0FF382E2045467F
:100980004FF000090B90B9696D1C0E988847396AC1
:10099000824688470028F6D1BAF1FF3F0AD024F4F6
:1009A000D064002E11DDBAF12B0F08D0BAF12D0F53
:1009B0000BD102E0404611B08DE744F48064B96980
:1009C0006D1C0E9888478246761E6946600501D5E3
:1009D0002D2000E02B208DF8000001F1010B0DF11E
:1009E000200809E0B9696D1C0E98884782460F9867
:1009F00044F40074761E0560002E02DDBAF1300F5B
:100A0000F0D00B998A453ED144F0800406E00F995E
:100A1000681CA9F1010944F400740860B9696D1CEF
:100A2000761E0E98884782463028F0D02BE00B992E
:100A30008A4505D1200603D444F08004761E18E0D0
:100A4000504600F099FE08B30DF11301761E44F4F0
:100A500000748B4508D2AAF130000BF8010B200678
:100A600007D5A9F1010003E0200602D409F1010035
:100A70008146A00502D50F99681C0860B9696D1CF4
:100A80000E9888478246002ED1DC53E0002E51DDBF
:100A9000BAF1650F02D0BAF1450F4BD1A00549D587
:100AA000B9696D1C24F44074761E0E9888478246FE
:100AB000002E0CDD2B2804D0BAF12D0F07D144F401
:100AC0008074B9696D1C0E9888478246761EE005D1
:100AD00001D52D2100E02B2108F8011BCDF82C8039
:100AE00021E00DF12901761E44F4007488450CD2F2
:100AF000AAF1300010F0FF0088F8000002D10B9935
:100B0000884509D908F1010806E0E00501D5244827
:100B100001E042F20F708146B9696D1C0E9888475A
:100B200082460F980560002E04DD504600F024FE3A
:100B30000028D6D1F9690E988847FF208BF800006D
:100B400088F800000020069007904B466A4608A9E6
:100B500006A8FFF777FEA00502D46FF001002AE790
:100B600014F0240F0AD0E00714D1DDE9061238682A
:100B7000031D3B600068C0E900120BE0DDE90601DF
:100B8000FFF734FB0146E00704D13868021D3A60E4
:100B90000068016028460EE7000014400000F03FA6
:100BA000F1D8FFFF426842B1016811F8013B23B15F
:100BB000521EC0E90012184670470121C160881E0C
:100BC000704742685AB1C368016843B983688B4271
:100BD00005D0491E521CC0E90012002070474FF09A
:100BE000FF3070472DE9F05F8246007800271546F8
:100BF0008B460AF10104B946302801D09DB113E0BB
:100C000014F8010B0127782803D0582801D045B1EA
:100C10000AE00DB1102D07D10027102514F8010BA3
:100C200002E0082500E00A250026B0460EE005FB9C
:100C3000080005FB06F1012701EB10461FFA80F8BA
:100C4000B6F5803F00D3B94614F8010B294600F0F1
:100C500075F80028EBDABBF1000F05D00FB1641E68
:100C600000E05446CBF80040B9F1000F06D000F088
:100C7000A1FC02210160C81EBDE8F09F48EA0640C1
:100C8000FAE710B5141E73F1000408DA401C41F1B4
:100C9000000192185B411A4301D120F0010010BD00
:100CA0002DE9F04D92469B4611B1B1FA81F202E076
:100CB000B0FA80F220329046FFF784FD04460F46DA
:100CC00040EA0A0041EA0B0153465A46084313D052
:100CD000114653EA010019D0C8F140025046FFF70F
:100CE00080FD05460E46504659464246FFF76AFDCE
:100CF000084305D0012004E020463946BDE8F08DC8
:100D00000020054346EAE0762C4337430A98630502
:100D1000E40AA0EB08000022FD0A44EA47540A3026
:100D200002D500200146E9E7010510196941DDE916
:100D3000084500196941BDE8F04DA2E73A2800D204
:100D4000303820F02002412A01D3A2F13700884236
:100D500001D34FF0FF3070470EB540F2334202929C
:100D60000022CDE900221346FFF79AFF03B000BD31
:100D700000BFFEE770472DE9F0410246002500263E
:100D8000002000230024002791F803C00CF00F0579
:100D900091F803C00CF0100CBCF1000F03D091F8D7
:100DA00002C04CEA050591F800C0BCF1000F31D03B
:100DB000146800202BE04FF0010C0CFA00F3B1F89E
:100DC00000C00CEA03069E4220D183004FF00F0CB6
:100DD0000CFA03F7BC4305FA03FC4CEA040491F84F
:100DE00003C0BCF1280F06D14FF0010C0CFA00FC37
:100DF000C2F814C00AE091F803C0BCF1480F05D155
:100E00004FF0010C0CFA00FCC2F810C0401C08287E
:100E1000D1D31460B1F800C0BCF1FF0F34DD5468C9
:100E200000202EE000F1080C4FF0010808FA0CF346
:100E3000B1F800C00CEA03069E4221D183004FF0B6
:100E40000F0C0CFA03F7BC4305FA03FC4CEA04044C
:100E500091F803C0BCF1280F05D100F1080C08FA85
:100E60000CF8C2F8148091F803C0BCF1480F07D108
:100E700000F1080C4FF0010808FA0CF8C2F81080D5
:100E8000401C0828CED35460BDE8F081F8B5044674
:100E90000D4616461F461148844204D10121042004
:100EA00000F0AAF80EE00E48844204D10121082087
:100EB00000F0A2F806E00B48844203D10121102083
:100EC00000F09AF8ADF800508DF803608DF80270CC
:100ED00069462046FFF74FFFF8BD000000080140BB
:100EE000000C01400010014010B5024600200E4BDE
:100EF0009A4201D10D4903E00D4B9A4200D10D49B0
:100F00004B89002B0EDD0C890B68185D0B895B1C6F
:100F10000B814B895B1E4B810B898C88A34201D1CD
:100F200000230B8110BD00000038014000000020AC
:100F3000004400400C0000202DE9F04180460D46A1
:100F400016460027002410E04046FFF7CDFF074675
:100F50005FB12F55285D0A2802D1601C84B206E0DB
:100F6000601C84B2B44200DD0024B442ECDB00BF5C
:100F7000002028552046BDE8F08100BFFEE700BFF5
:100F8000FEE7704770B5002100230F22C47804B338
:100F9000154C246804F4E064C4F5E064210AC1F14E
:100FA0000403CA40447804FA03F1847814402143CE
:100FB00009010E4C0678A155047804F01F050124A0
:100FC000AC4005786D11AD0005F1E025C5F8004194
:100FD00009E0047804F01F050124AC40044D0678B4
:100FE000761145F8264070BD0CED00E000E400E00D
:100FF00080E100E07047000029B1064A926902438F
:10100000044B9A6104E0034A92698243014B9A615E
:10101000704700000010024030B50021002200247B
:1010200000232D4D6D6805F00C0121B1042905D078
:10103000082923D105E0294D056022E0274D0560F0
:101040001FE0254D6D6805F47012234D6D6805F4A1
:101050008034022505EB92421CB9214D55430560B1
:101060000BE01D4D6D6805F400351DB11C4D554359
:10107000056002E0194D5543056002E0174D05601B
:1010800000BF00BF144D6D6805F0F0010909154D52
:101090006B5C0568DD4045600F4D6D6805F4E061EF
:1010A000090A104D6B5C4568DD4085600A4D6D682E
:1010B00005F46051C90A0B4D6B5C4568DD40C560A5
:1010C000054D6D6805F44041890B074D6B5CC568A3
:1010D000B5FBF3F5056130BD0010024000127A0047
:1010E00000093D001C0000202C000020704710B5B6
:1010F00000F002F810BD00000CB500200190009037
:101100003348006840F480303149086000BF3048FF
:10111000006800F4003000900198401C0190009895
:1011200018B90198B0F5A06FF1D12948006800F412
:10113000003010B10120009001E0002000900098E4
:10114000012843D12348006840F01000214908607D
:101150000846006820F0030008600846006840F078
:10116000020008601A48406819494860084640680B
:1011700048600846406840F480604860084640681F
:1011800020F47C1048600846406840F4E81048604D
:101190000846006840F08070086000BF0C48006896
:1011A00000F000700028F9D00948406820F00300E2
:1011B000074948600846406840F00200486000BFA8
:1011C0000348406800F00C000828F9D10CBD00006D
:1011D0000010024000200240042808D14FF0E02116
:1011E000096941F004014FF0E022116107E04FF07E
:1011F000E021096921F004014FF0E02211617047FC
:101200007047000010B51348006840F00100114914
:10121000086008464068104908400E494860084682
:1012200000680E4908400B4908600846006820F431
:10123000802008600846406820F4FE0048604FF4B3
:101240001F008860FFF753FF4FF0006004490860FB
:1012500010BD0000001002400000FFF8FFFFF6FE86
:1012600008ED00E010B540F22551064800F03BF8CB
:1012700030B10448001D0088C1B2034800F0EEF808
:1012800010BD0000003801400000002010B540F201
:101290002551064800F027F830B10448001D0088A9
:1012A000C1B2034800F0DAF810BD0000004400406D
:1012B0000C00002021B1828942F40052828104E0B6
:1012C00082894DF6FF731A408281704702460020E2
:1012D000B1F5007F00D100BF13880B400BB1012096
:1012E00000E00020704770B502460024002300256E
:1012F000002040F66A16B14200D100BFC1F342158A
:1013000001F01F03012606FA03F3012D02D196898D
:10131000334006E0022D02D1168A334001E0968A5E
:1013200033400C12012606FA04F41688344013B137
:101330000CB1012000E0002070BDF0B50346002490
:1013400000260025002040F66A17B94200D100BFF0
:101350001846C1F3421401F01F06012707FA06F5EB
:10136000012C01D10C3004E0022C01D1103000E03E
:1013700014301AB107682F43076002E00768AF43D3
:101380000760F0BD2DE9F04786B005460E46002403
:10139000A24600BFA1460027B08900B100BF2F467A
:1013A0002C8A4CF6FF700440F08804432C82AC89F0
:1013B0004EF6F3100440B088318908437189084320
:1013C0000443AC81AC8A4FF6FF400440B08904432B
:1013D000AC8201A8FFF720FE1F48874202D1DDF84A
:1013E00010A001E0DDF80CA0A88900F4004040B195
:1013F0000AEBCA0000EB0A1031684900B0FBF1F8B3
:1014000007E00AEBCA0000EB0A1031688900B0FB64
:10141000F1F86420B8FBF0F004012009642101FB1D
:101420001089A88900F4004040B1322000EBC900C7
:10143000B0FBF1F000F00700044308E0322000EBBD
:1014400009106421B0FBF1F000F00F0004432C817F
:1014500006B0BDE8F087000000380140C2888388EC
:101460009A4201D10022C280C3880268D154C28846
:10147000521CC2804289521C42817047F0B585B02F
:1014800005460C46174601210846FFF7B5FD3B48C7
:10149000854205D1252601218803FFF7ADFD07E030
:1014A0003748854204D1262601214804FFF7A4FDD0
:1014B0006CB9032318224FF400713248FFF7E6FCA1
:1014C0000323042211022F48FFF7E0FC2BE0012C3C
:1014D0000CD10323182240212B48FFF7D7FC03230C
:1014E000042280212848FFF7D1FC1CE0022C0CD1FB
:1014F0000323182204212348FFF7C8FC03230422F6
:1015000008212048FFF7C2FC0DE0032C0BD1032378
:10151000182220211D48FFF7B9FC03230422402193
:101520001A48FFF7B3FC01970020ADF80800ADF8AA
:101530000A00ADF80C00ADF810000C20ADF80E005C
:1015400001A92846FFF71EFF8DF8006000208DF8E6
:1015500001008DF8020001208DF803006846FFF7B6
:1015600011FD012240F225512846FFF7E6FE012138
:101570002846FFF79FFE05B0F0BD0000003801408F
:101580000044004000080140000C014000140140EC
:1015900000BFFEE70FB4054B10B503A9044A02983B
:1015A00000F0F2F810BC5DF814FB0000251F0008E5
:1015B0006C0000200048704770000020014800685F
:1015C000704700007000002002E008C8121F08C128
:1015D000002AFAD170477047002001E001C1121FB4
:1015E000002AFBD1704700000149086070470000E5
:1015F000700000202DE9FF5F82B00021DDE904309A
:10160000020DDDF840B0034318D044F61050A2F2AA
:10161000FF3242431514119801281FD0A5EB0B008F
:10162000401C5FEA000A4FF000064E4FDFF8389189
:10163000B046504615D5CAF1000413E011980124B4
:101640004AA3012801D16FEA0B010298119AC0E95F
:101650000031C0E9024206B0BDE8F09FCBF10000C6
:10166000DFE704460021404A491842EB0450CDE927
:10167000001012E0E00707D032463B46404649469C
:10168000FEF77CFF8046894632463B4610461946A7
:10169000FEF774FF06460F466410002CEAD1DDE920
:1016A0000401DDE90023BAF1000F06DAFEF766FF58
:1016B00042464B46FEF762FF05E0FEF7D1FF424689
:1016C0004B46FEF7CDFF04460E460022284BFFF79F
:1016D0004FF803D84FF0FF30014607E00022254BBA
:1016E00020463146FEF7A3FEFFF729F8102409E053
:1016F000002C0ADB0A220023FEF7AAFD039B3032EE
:101700001A55641E50EA0102F2D1641C039AC4F116
:1017100011031444119A012A03D0012208430DD168
:101720000AE0084304D000204FF0110B119072E73B
:10173000A3EB0B056D1E0DE05B4504DD4FF00002D1
:1017400005F1010504E003DA4FF00002A5F10105FF
:10175000002AECD002981199C0E90231C0E9004595
:1017600079E70000000014400000F03F3000000066
:101770000000F0430000E03F30380A2801D2012089
:1017800070470020704700002DE9FF4F95B09B4641
:101790008946064600250FE2252877D100242746F2
:1017A000F84A0121059400E0044316F8013F203B6C
:1017B00001FA03F01042F7D130782A2811D06FF0E7
:1017C0002F033078A0F13002092A16D8059A44F088
:1017D000020402EB820203EB42021044761C0590E5
:1017E000EFE759F8042B0592002A03DA504244F43B
:1017F0000054059044F00204761C30782E2816D14F
:1018000016F8010F44F004042A280DD06FF02F02BF
:101810003078A0F13003092B09D807EB870302EBDE
:101820004303C718761CF3E759F8047B761C30781D
:101830006C280FD006DC4C2817D068280DD06A28F9
:1018400014D104E0742810D07A280FD10DE044F4AC
:1018500000140AE044F4801401E044F44014727867
:10186000824202D104F58014761C761C30786628FA
:101870000BD013DC582877D009DC002875D0452818
:10188000F6D04628F4D047281AD19DE118E0632805
:1018900035D0642879D0652812D195E1702873D0AD
:1018A00008DC6728F1D069286FD06E280DD06F282A
:1018B00006D1B5E073282CD0752875D0782874D05F
:1018C0005A46179990476D1C75E1C4F302500228DF
:1018D00009D003280DD0D9F8001004280DD00D60D0
:1018E00009F1040967E1D9F80010EA17C1E90052CB
:1018F000F6E7D9F800100D80F2E70D70F0E719F85F
:10190000041B8DF8001000208DF80100EA4601202C
:1019100003E059F804AB4FF0FF3061074FF00001CE
:1019200002D40DE008F101018846B9420FDA804582
:10193000F8DB1AF808100029F4D108E008F10101D9
:1019400088468142FADB1AF808100029F6D105987A
:101950005B46A0EB080721463846179A00F094FA38
:10196000284400EB080507E04DE029E10DE01AF8F6
:10197000010B5A4617999047B8F10108F7D25B4618
:1019800021463846179A13E142E00A220092C4F336
:1019900002524FF0000A022A08D059F804CB032A59
:1019A0004FEAEC710AD00DE029E02AE009F10701C5
:1019B00021F00702F2E802C1914609E00FFA8CFC1F
:1019C0004FEAEC71042A03D14FFA8CFC4FEAEC7118
:1019D000002907DA0A460021DCF1000C61EB020164
:1019E0002D2202E0220504D52B228DF804200122AD
:1019F00003E0E20701D02022F7E7904659E00A21F0
:101A000002E010220DE010214FF0000A00910BE0DF
:101A100010224FF0000A44F004040827009203E06B
:101A200008224FF0000A0092C4F30252022A05D0A5
:101A300059F804CB0021032A08D009E009F1070175
:101A400021F00702F2E802C1914605E01FFA8CFC82
:101A5000042A01D10CF0FF0C4FF00008220728D512
:101A6000702806D0009B83F0100353EA0A0305D0C8
:101A70000EE040228DF80420012208E05CEA010219
:101A800006D030228DF804208DF805000222904601
:101A9000009B83F0080353EA0A030AD15CEA0102BF
:101AA00001D1620705D530228DF804204FF00108DE
:101AB0007F1E582804D034A003900EA802900DE099
:101AC00036A0F9E753466046009AFEF7C1FB84460C
:101AD0000398825C0298401E029002705CEA01004A
:101AE000F0D1029806A9081A00F1200A600702D571
:101AF00024F4803400E00127574502DDA7EB0A00FB
:101B000000E0002000EB0A01009005984144401AD3
:101B10000590E00306D45B462146179A059800F02D
:101B2000B3F90544002706E001A85A46C05D17999D
:101B300090476D1C7F1C4745F6DBE0030CD55B46E8
:101B40002146179A059800F09FF9054404E03020DB
:101B50005A46179990476D1C0099481E009000291D
:101B6000F5DC08E0029802995A460078491C029177
:101B7000179990476D1CBAF10001AAF1010AF1DC36
:101B800065E1000009280100303132333435363741
:101B900038396162636465660000000030313233B9
:101BA0003435363738394142434445460000000059
:101BB00000F058F90544761C307800287FF4ECAD2D
:101BC00019B02846BDE8F08F620700D4062709F156
:101BD000070222F0070CFCE80223E14603F000486C
:101BE0005FEA080C02D00FF2702C0DE05FEA045C93
:101BF00002D50FF2682C07E05FEAC47C02D00FF236
:101C0000602C01E0AFF2700C4FF0FF3823F000437E
:101C1000CDF850C065280CD006DC452809D04628F0
:101C20001DD047283DD13DE0662818D067287ED1D9
:101C300038E00021112F01DB112000E0781CCDE9F4
:101C4000000106A90EA8FFF7D5FCDDE90F010E9AE9
:101C500003910021009207F1010A04914DE04FF039
:101C600000400097CDE9011006A90EA8FFF7C2FCBD
:101C7000DDE90F0203920E9B11990022DDF80CA002
:101C80000093049211B9791C00EB010AB7EB0A002A
:101C900004D4C0F1FF3007F1010A0490AAEB070059
:101CA000019044E0012F00DA01270021112F01DD0E
:101CB000112000E03846CDE9000106A90EA8FFF783
:101CC00099FCDDE90F010E9A039100210491009225
:101CD000BA4621070CD40399514500DA8A46BAF175
:101CE000010F05DD009AAAF10101515C302908D0ED
:101CF000B84202DA10F1040F06DA0121CDE9011031
:101D000015E0AAF10101E9E7002805DC0499014486
:101D10000491AAEB000102E0411C514500DD8A4616
:101D20000499401A401C01904FF000400290200797
:101D300004D40198504501DBCDF8048000208DF8D3
:101D40004F0002980DF14F07B0F1004F25D02B2026
:101D50000E9002984FF0020800280CDA40420290E0
:101D60002D200E9007E00A210298FEF75BFA303131
:101D7000029007F8011DB8F10001A8F10108F2DC9A
:101D800002980028EFD1791E0E980870307800F084
:101D9000200040F0450007F8020D12A8C01B00F11A
:101DA00007081498007800B1012000EB0A0101989F
:101DB00001EBE07105984144401A401E0590E00394
:101DC00006D45B462146179A059800F05DF8054455
:101DD0001498007818B15A46179990476D1CE00383
:101DE00024D55B462146179A059800F04DF8054426
:101DF0001CE00498002807DBDDE90301884203DDCD
:101E00000098405C179901E0179930205A46904796
:101E1000049805F10105401C04900198401E0190B2
:101E200004D12E205A46179990476D1CBAF1000133
:101E3000AAF1010ADDDC05E017F8010B5A461799F3
:101E400090476D1CB8F10001A8F10108F4DC5B4675
:101E50002146179A0598ABE62D0000002B000000E4
:101E6000200000002DE9F041044600251E461746DB
:101E7000880404D405E039462020B0476D1C641E58
:101E8000F9D52846BDE8F0812DE9F041044600254A
:101E90001E469046C80301D5302700E0202788045D
:101EA00004D505E041463846B0476D1C641EF9D59F
:101EB0002846BDE8F08130B583B00446FFF77EFBCD
:101EC00005460020CDE90000024621466846FEF79F
:101ED0000CFA2846FFF788FBDDE9000103B030BDAE
:101EE00010B56FF00400FFF777F90A4800680A4957
:101EF000B0FBF1F0094908700846007800EB40019A
:101F0000C1EBC0104FF6FF7101EAC0000449088020
:101F100010BD00005400002000127A0018000020BC
:101F20001A00002070B504460D46E1B2024800F0E8
:101F300073F8204670BD0000003801400EB5FFF771
:101F4000CFFF0323102211022548FEF79FFF4FF415
:101F5000165200212348FFF791FA00202249086019
:101F60003CE01E2221491F48FEF7E6FF002835D03D
:101F70001FA11E48FEF7F8F80646FFF79CFF04462F
:101F8000FEF734F91B49086019A10020FEF7ECF8B0
:101F90000646FFF790FF0446FEF728F91649086049
:101FA00016A10020FEF7E0F80446FEF7FFF81449FA
:101FB000086011480068FEF706F904460D460D4812
:101FC0000068FEF700F906460D48006832460B46E9
:101FD000CDE9004502900BA0FFF7DCFAC1E7000055
:101FE000000C014000380140B08121425A0100201C
:101FF0002C00000040000020440000200A000000E7
:102000004800002025322E32662D25322E32662DD4
:102010002533640A0000000070B504460D4600BF79
:1020200080212046FFF752F90028F9D0C5F30800B7
:10203000A08070BD00404040404040404040414191
:10204000414141404040404040404040404040408D
:102050004040404040050202020202020202020227
:102060000202020202202020202020202020200224
:1020700002020202020290909090909010101010B4
:102080001010101010101010101010101010101050
:1020900002020202020288888888888808080808E4
:1020A00008080808080808080808080808080808B0
:1020B000020202024000000035200008DC20000877
:1020C0000000002074000000C8150008502100081E
:1020D000740000202C050000D815000874000020B2
:1020E0006400000000000000D80000206400000030
:1020F00000000000000000000000000001020304D6
:102100000102030406070809020406080000000093
:1021100000000000000000000000000000000000BF
:1021200000000000000000000000000000000000AF
:1021300000A24A04000000000000000001020304A5
:102140000607080900000000000000000000000071
:0400000508000131BD
:00000001FF
