:020000040800F2
:100000009008002045010008E1090008B90900082E
:10001000DD09000841080008210C0008000000006C
:10002000000000000000000000000000050A0008B9
:100030004508000800000000E3090008190B00084B
:100040005F0100085F0100085F0100085F01000810
:100050005F0100085F0100085F0100085F01000800
:100060005F0100085F0100085F0100085F010008F0
:100070005F0100085F0100085F0100085F010008E0
:100080005F0100085F0100085F0100085F010008D0
:100090005F0100085F0100085F0100085F010008C0
:1000A0005F0100085F0100085F0100085F010008B0
:1000B0005F0100085F0100085F0100085F010008A0
:1000C0005F0100085F0100085F0100085F01000890
:1000D0005F0100087D0B00085F0100085F01000858
:1000E0005F0100085F0100085F0100085F01000870
:1000F0005F0100085F0100085F0100085F01000860
:100100005F0100085F0100085F0100085F0100084F
:100110005F0100085F0100085F0100085F0100083F
:100120005F0100085F0100085F0100085F0100082F
:10013000DFF80CD000F018F800480047D50C000894
:10014000900800200648804706480047FEE7FEE783
:10015000FEE7FEE7FEE7FEE7FEE7FEE7FEE7FEE777
:100160001D0B000831010008064C074D06E0E06851
:1001700040F0010394E8070098471034AC42F6D3EE
:10018000FFF7DAFF040D0008240D000821B1826892
:1001900042F00102826003E0826822F00102826084
:1001A0007047014600208A6802F004020AB101206B
:1001B00000E0002070470146C86C80B270470246DC
:1001C000002013680B400BB1012000E000207047B5
:1001D000014600208A6802F008020AB1012000E00E
:1001E0000020704730B502460020002350680F4CB5
:1001F00020400D790C6844EA052420435060906843
:100200000B4C2040D1E902542C434D7944EA45047B
:1002100020439060D06A20F470000C7C641EE4B22D
:10022000234340EA0350D06230BD0000FFFEF0FFE0
:10023000FDF7F1FFF0B504460D4600200021092D21
:1002400011DDE068A5F10A0606EB4607072606FA67
:1002500007F18843A5F10A0606EB460603FA06F104
:100260000843E0600CE0206905EB4507072606FA25
:1002700007F1884305EB450603FA06F108432061C0
:10028000072A0FDA606B561E06EB86071F2606FA52
:1002900007F18843561E06EB860605FA06F1084369
:1002A000606322E00D2A0FDA206BD61F06EB86076B
:1002B0001F2606FA07F18843D61F06EB860605FAC5
:1002C00006F10843206310E0E06AA2F10D0606EB98
:1002D00086071F2606FA07F18843A2F10D0606EBF2
:1002E000860605FA06F10843E062F0BD816841F038
:1002F00008018160704721B1826842F4A0028260E7
:1003000003E0826822F4A00282607047816841F0B5
:100310000401816070472DE9F04107468846144684
:100320000025002606E04146384600F00AF805445C
:10033000701CC6B2A642F6DBB5FBF4F080B2BDE895
:10034000F08170B504460D46072301222946204658
:10035000FFF770FF01212046FFF7CDFF00BF02210C
:100360002046FFF72CFF0028F9D02046FFF723FF97
:1003700070BD000030B585B004460D46FA48844291
:1003800004D10121401500F02DFB0EE0F748844216
:1003900004D10121001500F025FB06E0F448844259
:1003A00003D10121C80300F01DFBEDB9EE488442E2
:1003B00006D1032300220121EE4800F0CFFA00E22B
:1003C000EA48844206D1032300220121E94800F0D3
:1003D000C5FAF6E1E6488442F1D103230022012167
:1003E000E44800F0BBFAECE1012D1DD1DE48844267
:1003F00006D1032300220221DE4800F0AFFAE0E13B
:10040000DA48844206D1032300220221D94800F0B1
:10041000A5FAD6E1D6488442D1D103230022022195
:10042000D44800F09BFACCE1022D1DD1CE48844285
:1004300006D1032300220421CE4800F08FFAC0E148
:10044000CA48844206D1032300220421C94800F08F
:1004500085FAB6E1C6488442B1D1032300220421C3
:10046000C44800F07BFAACE1032D1DD1BE488442A4
:1004700006D1032300220821BE4800F06FFAA0E154
:10048000BA48844206D1032300220821B94800F06B
:1004900065FA96E1B648844291D1032300220821EF
:1004A000B44800F05BFA8CE1042D1DD1AE488442C3
:1004B00006D1032300221021AE4800F04FFA80E15C
:1004C000AA48844206D1032300221021A94800F043
:1004D00045FA76E1A648844285D1032300224021D3
:1004E000A54800F03BFA6CE1052D1DD19E488442E1
:1004F00006D10323002220219E4800F02FFA60E15C
:100500009A48844206D1032300222021994800F012
:1005100025FA56E19648844285D1032300228021A2
:10052000954800F01BFA4CE1062D1DD18E488442FF
:1005300006D10323002240218E4800F00FFA40E14B
:100540008A48844206D1032300224021894800F0D2
:1005500005FA36E18648844285D1032300228115BD
:10056000854800F0FBF92CE1072D1DD17E4884421F
:1005700006D10323002280217E4800F0EFF920E11C
:100580007A48844206D1032300228021794800F072
:10059000E5F916E17648844285D10323002241150E
:1005A000754800F0DBF90CE1082D1DD16E4884423E
:1005B00006D1032300220121704800F0CFF900E1A9
:1005C0006A48844206D10323002201216B4800F0CF
:1005D000C5F9F6E06648844285D10323002201155F
:1005E000654800F0BBF9ECE0092D1DD15E4884425E
:1005F00006D1032300220221604800F0AFF9E0E0B9
:100600005A48844206D10323002202215B4800F0AD
:10061000A5F9D6E05648844285D10323002208215B
:10062000554800F09BF9CCE00A2D1DD14E4884427C
:1006300006D1032300220121514800F08FF9C0E0C8
:100640004A48844206D10323002201214C4800F08D
:1006500085F9B6E04648844205D1032300220121F2
:10066000474800F07BF9ACE00B2D1DD13E48844299
:1006700006D1032300220221414800F06FF9A0E0D7
:100680003A48844206D10323002202213C4800F06C
:1006900065F996E03648844205D103230022022101
:1006A000374800F05BF98CE00C2D1DD12E488442B8
:1006B00006D1032300220421314800F04FF980E0E5
:1006C0002A48844206D10323002204212C4800F04A
:1006D00045F976E02648844273D1032300220421A1
:1006E000274800F03BF96CE00D2D1DD11E488442D7
:1006F00006D1032300220821214800F02FF960E0F1
:100700001A48844206D10323002208211C4800F025
:1007100025F956E01648844253D1032300220821CC
:10072000174800F01BF94CE00E2D2BD10E488442E7
:1007300006D1032300221021114800F00FF940E0F8
:100740000A48844206D10323002210210C4800F0FD
:1007500005F936E00648844233D1032300221021F4
:10076000054800F0FBF82CE000240140002801407F
:10077000003C014000080140001C0140000C014009
:10078000001001400F2D1CD12848844206D10323BC
:1007900000222021264800F0E1F812E0254884429A
:1007A00006D1032300222021214800F0D7F808E0D9
:1007B0002148844205D10323002220211F4800F054
:1007C000CDF80020009001208DF804008DF8050080
:1007D0004FF4602002900020039001208DF810005B
:1007E00069462046FFF7FEFC0723012229462046E2
:1007F000FFF720FD01212046FFF7C8FC2046FFF748
:1008000075FD00BF2046FFF7E3FC0028FAD1204623
:10081000FFF77CFD00BF2046FFF7C3FC0028FAD19C
:1008200001212046FFF767FD05B030BD00240140DF
:100830000010014000280140003C0140001C014024
:1008400000BFFEE770472DE9F04102460025002673
:10085000002000230024002791F803C00CF00F05AE
:1008600091F803C00CF0100CBCF1000F03D091F80C
:1008700002C04CEA050591F800C0BCF1000F31D070
:10088000146800202BE04FF0010C0CFA00F3B1F8D3
:1008900000C00CEA03069E4220D183004FF00F0CEB
:1008A0000CFA03F7BC4305FA03FC4CEA040491F884
:1008B00003C0BCF1280F06D14FF0010C0CFA00FC6C
:1008C000C2F814C00AE091F803C0BCF1480F05D18A
:1008D0004FF0010C0CFA00FCC2F810C0401C0828B4
:1008E000D1D31460B1F800C0BCF1FF0F34DD5468FF
:1008F00000202EE000F1080C4FF0010808FA0CF37C
:10090000B1F800C00CEA03069E4221D183004FF0EB
:100910000F0C0CFA03F7BC4305FA03FC4CEA040481
:1009200091F803C0BCF1280F05D100F1080C08FABA
:100930000CF8C2F8148091F803C0BCF1480F07D13D
:1009400000F1080C4FF0010808FA0CF8C2F810800A
:10095000401C0828CED35460BDE8F081F8B50446A9
:100960000D4616461F461148844204D10121042039
:1009700000F038F80EE00E48844204D1012108202E
:1009800000F030F806E00B48844203D1012110202A
:1009900000F028F8ADF800508DF803608DF8027073
:1009A00069462046FFF74FFFF8BD000000080140F0
:1009B000000C01400010014000BFFEE710B503230A
:1009C000102251020348FFF7C9FF012002490860C5
:1009D00010BD000000100140B401224200BFFEE73C
:1009E0007047704729B1064A92690243044B9A61E5
:1009F00004E0034A92698243014B9A617047000008
:100A000000100240704710B500F002F810BD000061
:100A10000CB50020019000903348006840F480300D
:100A20003149086000BF3048006800F40030009091
:100A30000198401C0190009818B90198B0F5A06F7A
:100A4000F1D12948006800F4003010B10120009075
:100A500001E0002000900098012843D1234800685D
:100A600040F01000214908600846006820F00300AB
:100A700008600846006840F0020008601A484068B4
:100A8000194948600846406848600846406840F494
:100A9000806048600846406820F47C104860084642
:100AA000406840F4E81048600846006840F08070F4
:100AB000086000BF0C48006800F000700028F9D002
:100AC0000948406820F0030007494860084640682C
:100AD00040F00200486000BF0348406800F00C008E
:100AE0000828F9D10CBD000000100240002002408F
:100AF000042808D14FF0E021096941F004014FF0CA
:100B0000E022116107E04FF0E021096921F00401C2
:100B10004FF0E022116170477047000010B5134894
:100B2000006840F00100114908600846406810491B
:100B300008400E494860084600680E4908400B49C5
:100B400008600846006820F4802008600846406875
:100B500020F4FE0048604FF41F008860FFF753FF49
:100B60004FF000600449086010BD00000010024012
:100B70000000FFF8FFFFF6FE08ED00E010B50024CE
:100B800040F22551054800F00DF830B10348001D32
:100B90000088C1B2024800F02FF810BD00380140B3
:100BA0000400002070B50246002400230025002028
:100BB00040F66A16B14200D100BFC1F3421501F000
:100BC0001F03012606FA03F3012D02D19689334053
:100BD00006E0022D02D1168A334001E0968A3340A6
:100BE0000C12012606FA04F41688344013B10CB135
:100BF000012000E0002070BD028983889A420EDC4B
:100C0000028983889A4201D1002202810389026805
:100C1000D1540289521C0281C288521CC280704782
:100C200000BFFEE702E008C8121F08C1002AFAD17F
:100C300070477047002001E001C1121F002AFBD15C
:100C40007047000010B56FF00400FFF751FF0A482D
:100C500000680A49B0FBF1F00949087008460078BD
:100C600000EB4001C1EBC0104FF6FF7101EAC0007C
:100C70000449088010BD00009000002000127A0096
:100C800000000020020000200146114A12884A4359
:100C90004FF0E0235A6100229A611A46126942F02D
:100CA00001021A6100BF4FF0E022106900F001025A
:100CB0001AB100F48032002AF5D04FF0E022126918
:100CC00022F001024FF0E0231A6100229A6170477E
:100CD00002000020FFF772FEFFF7B4FF0021074873
:100CE000FFF748FB09E0C82200210448FFF713FB87
:100CF000034908806420FFF7C7FFF4E700240140A0
:100D00008E000020240D000800000020A400000038
:100D1000240C0008C80D0008A4000020EC07000007
:100D2000340C000800000000A40000206400000053
:100D30000000000000000000080100206400000026
:100D400000000000000000006C01002064000000B2
:100D50000000000000000000D0010020640000003E
:100D600000000000000000003402002064000000C9
:100D70000000000000000000980200206400000055
:100D80000000000000000000FC02002064000000E1
:100D9000000000000000000060030020640000006C
:100DA0000000000000000000000000000000000043
:100DB0000000000000A24A04000000000000000043
:080DC000010203040607080903
:0400000508000131BD
:00000001FF
